:020000040800F2
:100000008018002071020008A1540008770A000837
:100010009D540008BD060008A35B00080000000016
:10002000000000000000000000000000015800086F
:10003000C1060008000000003155000819590008E9
:100040008B0200088B0200088B0200088B0200085C
:100050008B0200088B0200088B0200088B0200084C
:100060008B0200088B0200088B0200088B0200083C
:100070008B0200088B0200088B0200088B0200082C
:100080008B0200088B0200088B0200088B0200081C
:100090008B0200088B0200088B0200088B0200080C
:1000A0008B0200088B0200088B0200088B020008FC
:1000B0008B0200088B0200088B0200088B020008EC
:1000C0008B0200088B0200088B0200088B020008DC
:1000D0008B020008855900088B0200088B0200087B
:1000E0008B0200088B0200088B0200088B020008BC
:1000F0008B0200088B0200088B0200088B020008AC
:100100008B0200088B0200088B0200088B0200089B
:100110008B0200088B0200088B0200088B0200088B
:100120008B0200088B0200088B0200088B0200087B
:100130008B0200088B0200088B0200088B0200086B
:100140008B0200088B0200088B0200088B0200085B
:100150008B0200088B0200088B0200088B0200084B
:100160008B0200088B0200088B0200088B0200083B
:100170008B0200088B0200088B0200088B0200082B
:100180008B0200088B02000800F002F800F061F812
:100190000AA090E8000C82448344AAF10107DA45E2
:1001A00001D100F056F8AFF2090EBAE80F0013F0D3
:1001B000010F18BFFB1A43F001031847E489000040
:1001C000048A00000A444FF0000C10F8013B13F0C1
:1001D000070408BF10F8014B1D1108BF10F8015BA0
:1001E000641E05D010F8016B641E01F8016BF9D193
:1001F00013F0080F1EBF10F8014BAD1C0C1B09D1EA
:100200006D1E58BF01F801CBFAD505E014F8016B5B
:1002100001F8016B6D1EF9D59142D6D370470000ED
:100220000023002400250026103A28BF78C1FBD8FF
:10023000520728BF30C148BF0B607047782900F0D3
:100240007980002070471FB507F0A5F81FBD10B5D5
:1002500010BD00F027F91146FFF7F5FF06F000FC8E
:1002600000F045F903B4FFF7F2FF03BC05F09BFC77
:100270000948804709480047FEE7FEE7FEE7FEE73A
:10028000FEE7FEE7FEE7FEE7FEE7FEE70448054976
:10029000054A064B704700001D59000889010008F7
:1002A000801200208018002080140020801400207C
:1002B000704700000FB4044910B503AA029800F07B
:1002C000C3F810BC5DF814FB341100202DE9F04197
:1002D0000E460446002020622046E168884730B37D
:1002E000252805D0D4E901219047206A401CF2E777
:1002F000E168204600278847050018D0A5F1410095
:10030000192802D820354FF4006732462946204686
:100310002760FFF793FF40B1012804D0F61D26F0B7
:1003200007060836D8E7361DD6E72846DAE7206AFA
:10033000BDE8F08170B504460D4621461068AFF364
:1003400000802188090502D50F4A7A4402E00E4A4E
:100350007A440E32002104F1240305E000F00F0678
:100360000009965D5E54491C0028F7D120780023CF
:10037000000704D5702D02D009B1022311322046A6
:10038000BDE8704000F006B82A880000704770474A
:10039000704770472DE9F0470D469946924604464E
:1003A00000F124080168880604D5E06921F01001F5
:1003B000216000E00120A84201DD471B00E000278A
:1003C000A1697A1902EB0900081AA0612078C00619
:1003D00002D42046AFF30080002608E0D4E90121D2
:1003E0001AF806009047206A401C761C20624E4591
:1003F000F4DB2078C0060AD52046AFF3008006E083
:10040000D4E9012130209047206A401C2062381E28
:10041000A7F10107F4DC07E0D4E9012118F8050091
:100420009047206A401C2062281EA5F10105F3DCDC
:100430002046AFF300802078000602D50220BDE8F8
:10044000F0870120FBE70000074B70B50D467B44A9
:1004500000F011F80446284600F020F810B14FF0E3
:10046000FF3070BD204670BD9358000001694A1CE2
:1004700002610878704700B58FB0CDE901310021E5
:10048000059105497944CDE9031011466846FFF707
:100490001DFF0FB000BD0000E5FFFFFF007B00F077
:1004A00080007047754600F02BF8AE46050069469F
:1004B000534620F00700854618B020B5FFF7E6FE4A
:1004C000BDE820404FF000064FF000074FF0000855
:1004D0004FF0000B21F00701AC46ACE8C009ACE8D6
:1004E000C009ACE8C009ACE8C0098D46704710B53A
:1004F0000446AFF300802046BDE81040FFF7B2BECF
:10050000004870472012002021B1826842F00102A9
:10051000826003E0826822F001028260704700007E
:100520000021084A1168084A1140D0E900231A4303
:1005300083681A43C3681A431143044AC2F8041378
:100540007047000004230140E030FCFF0020014020
:100550000146C86C80B270470246002013680B4009
:100560000BB1012000E000207047000030B50246CA
:10057000002000235068104C20400D790C6844EA9C
:1005800005242043506090680C4C2040D1E903546E
:100590002C438D682C434D7944EA450420439060F8
:1005A000D06A20F470000C7D641EE4B2234340EA5C
:1005B0000350D06230BD0000FFFEFFFCFDF7FFC01E
:1005C000F0B504460D4600200021092D11DDE0683C
:1005D000A5F10A0606EB4607072606FA07F1884347
:1005E000A5F10A0606EB460603FA06F10843E060A9
:1005F0000CE0206905EB4507072606FA07F188435A
:1006000005EB450603FA06F108432061072A0FDAD5
:10061000606B561E06EB86071F2606FA07F1884315
:10062000561E06EB860605FA06F10843606322E0D3
:100630000D2A0FDA206BD61F06EB86071F2606FA57
:1006400007F18843D61F06EB860605FA06F1084334
:10065000206310E0E06AA2F10D0606EB86071F2674
:1006600006FA07F18843A2F10D0606EB860605FAA5
:1006700006F10843E062F0BD816841F0804181608D
:10068000704700001CB50121402004F053FF4FF4D7
:100690000040009001208DF8040000208DF8060035
:1006A00003208DF8050002208DF8070069460248F6
:1006B00000F06BF91CBD00000018024000BFFEE70F
:1006C0007047000030B10749096841F48061054A6C
:1006D000116005E00349096821F48061014A116055
:1006E00070470000003C024070B504460A460026F0
:1006F000092502B909E0012A01D1160205E0022A02
:1007000001D1160201E04FF4407600F09FF8054653
:10071000092D28D11548006820F44070134908605D
:1007200008460068304308600846006820F0F8007A
:1007300008600846006844F0020108430B4908605D
:100740000846006840F48030086000F07FF80546F5
:100750000648006820F00200044908600846006866
:1007600020F0F8000860284670BD0000103C0240F0
:1007700009201349096801F48031B1F5803F01D1A6
:1007800001201CE00E49096801F0100109B10620A2
:1007900015E00B49096801F4807109B102200EE0EF
:1007A0000749096801F0EF0109B1072007E0044992
:1007B000096801F0020109B1082000E00920704732
:1007C0000C3C02400348006840F0004001490860CA
:1007D00070470000103C024030B502460C46092527
:1007E00000F034F80546092D19D10E48006820F4B0
:1007F00040700C4908600846006840F400700860CA
:100800000846006840F001000860146000F01EF81F
:1008100005460448006820F00100024908602846A7
:1008200030BD0000103C02400548006800F0004068
:1008300028B1044802490C39086003480860704731
:10084000103C024023016745AB89EFCD08B5092074
:100850000090FFF78DFF009002E0FFF789FF009006
:100860009DF800000128F8D09DF8000008BD0000A8
:1008700051B18200A2F1C042126842F0010382002D
:10088000A2F1C042136009E08200A2F1C0421268E6
:10089000034B1A408300A3F1C0431A607047000065
:1008A000FEFF0F00D0E901121143C2681143026933
:1008B00011434269114382691143C2691143026ABB
:1008C0001143426A1143826A1143C26A1143026BA7
:1008D000114302689200A2F1C042116081680829A8
:1008E0000BD101688900A1F1C041096841F04002C3
:1008F00001688900A1F1C0410A60416B0968426B3F
:10090000526841EA0211426B926841EA0221426B4D
:10091000928941EA0241426B128A41EA0251426BDA
:10092000127D41EA0261426B926911430268521CD6
:100930009200A2F1C0421160C16AB1F5804F1BD193
:10094000816B0968826B526841EA0211826B92687E
:1009500041EA0221826B128A41EA0251826B127DC6
:1009600041EA0261826B9269114302689200A2F12E
:10097000C042C2F8041107E06FF0704201688900BC
:10098000A1F1C041C1F804217047F0B50A46002129
:100990000023002400BF3DE0012505FA01F315689E
:1009A00005EA03049C4234D105684F000326BE408B
:1009B000B543056015794E00B540066835430560BE
:1009C0001579012D02D01579022D16D185684F00B9
:1009D0000326BE40B543856055794E00B540866814
:1009E00035438560456801268E40B54345604568BE
:1009F00096798E40B6B235434560C5684F000326F0
:100A0000BE40B543C560D5794E00B540C668354394
:100A1000C560491C1029BFD3F0BDF0B500230024E8
:100A20004D07ED0E02FA05F3CE1000F1200555F842
:100A300026504E07F70E0F26BE40B543CF1000F1EB
:100A4000200646F82750CE1000F1200555F8265014
:100A500045EA0304CE1000F1200545F82640F0BD1C
:100A60000246002013690B400BB1012000E000207A
:100A700070470183704700BFFEE7000000B58BB0F0
:100A80000121022004F056FD2020099002208DF85B
:100A9000290001208DF82B0009A92348FFF775FFD5
:100AA0000121022004F046FD4020079003208DF82C
:100AB000210001208DF8230007A91B48FFF765FFDF
:100AC0000121022004F036FD8020059003208DF8DE
:100AD000190001208DF81B0005A91348FFF755FFE9
:100AE0000121022004F026FD4FF4807003900320C2
:100AF0008DF8110001208DF8130003A90A48FFF7B3
:100B000044FF0121022004F015FD4FF40070019014
:100B100003208DF8090001208DF80B0001A902487F
:100B2000FFF733FF0BB000BD0004024070B5044670
:100B3000002617480588408845431548808846F6B2
:100B40000401884216D112488079012812D1002070
:100B50000F4988712A2048812B208881002108466E
:100B600004F03AF801200A4988712B2048812A2094
:100B7000888103E00021084604F02EF804F05CFCB4
:100B8000002602E003480480761CAE42FAD370BD12
:100B9000481100208000006C10B50446002C66D17E
:100BA0006C498871F02008804FF4A0704880084696
:100BB000808849F2413188420BD06648808846F6E9
:100BC0000401884205D06348808845F2103188428C
:100BD0001AD12C205F4908812A2048812B20888146
:100BE0000846808846F60401884205D05948808826
:100BF00045F21031884206D14FF4A0705549088063
:100C00004FF4F0704880A1E05248808845F21051BE
:100C1000884210D14FF430504E4908814FF428508B
:100C200048814FF42C5088814FF4F07008804FF4C5
:100C3000487048808AE04748808841F663118842BE
:100C40000DD12C20434908812B2048812A208881FE
:100C50004FF4F07008804FF44870488076E022200E
:100C60003C49088120204881212088816EE00120B4
:100C7000384988714FF4A0700880F02048800846F9
:100C8000808849F24131884205D03248808845F257
:100C90001031884207D12C202E4908812A20488112
:100CA0002B2088813FE02B48808846F6040188424B
:100CB00007D12C20274908812B2048812A208881B0
:100CC00031E02448808845F21051884210D14FF419
:100CD0003050204908814FF4285048814FF42C505F
:100CE00088814FF4487008804FF4F07048801AE013
:100CF0001848808841F6631188420DD12C2015498F
:100D000008812A2048812B2088814FF44870088070
:100D10004FF4F070488006E022200E49088121201F
:100D20004881202088810B48808846F6040188424B
:100D300005D00848808845F21031884206D14FF42A
:100D4000F070044908804FF4A0704880002003F040
:100D5000CDFD10BD4811002070B504460D46164665
:100D60005B48808849F24131884205D058488088E4
:100D700045F21031884214D15549488904F050FB9E
:100D8000201204F041FBE0B204F03EFB5049888998
:100D900004F046FB281204F037FBE8B204F034FB01
:100DA0008CE04B48808845F21051884220D1484958
:100DB000488904F035FB201204F026FB4449498998
:100DC000491C88B204F02CFBE0B204F01DFB404942
:100DD000888904F025FB281204F016FB3C49898918
:100DE000491C88B204F01CFBE8B204F00DFB65E07E
:100DF0003748808841F66311884228D13448807989
:100E000020B933480088401E001B84B2304948890D
:100E100004F006FB201204F0F7FAE0B204F0F4FA52
:100E2000201204F0F1FAE0B204F0EEFA28498889C1
:100E300004F0F6FA281204F0E7FAE8B204F0E4FA53
:100E4000281204F0E1FAE8B204F0DEFA36E02048B5
:100E5000808846F6040188421DD11D48807901280A
:100E600004D11B480088401E001B84B218494889E1
:100E700004F0D6FA201204F0C7FAE0B204F0C4FA83
:100E80001349888904F0CCFA281204F0BDFAE8B2BC
:100E900004F0BAFA12E00E488079012804D10C4817
:100EA0000088401E001B84B209494889214604F08D
:100EB000CDFA07498889294604F0C8FA0448008910
:100EC000044908804FF0D840A0F8806070BD000051
:100ED000481100207E00006C00B5A1B000202090D9
:100EE00001217A2004F026FB0121084604F032FBA0
:100EF0004FF400401E9001208DF87C0000208DF8FA
:100F00007E0002208DF87D0001208DF87F001EA953
:100F1000FE48FFF73AFD4CF233701E9002208DF828
:100F20007C0000208DF87E0003208DF87D000120DC
:100F30008DF87F001EA9F648FFF727FD4FF6807059
:100F40001E9002208DF87C0000208DF87E0003208A
:100F50008DF87D0001208DF87F001EA9ED48FFF778
:100F600014FD4FF480501E9002208DF87C0000206C
:100F70008DF87E0003208DF87D0001208DF87F0024
:100F80001EA9E548FFF701FD4FF480501E90022096
:100F90008DF87C0000208DF87E0003208DF87D0008
:100FA00001208DF87F001EA9DC48FFF7EEFC0C2223
:100FB0000021D748FFF731FD0C220121D448FFF76B
:100FC0002CFD0C220421D248FFF727FD0C2205211D
:100FD000CF48FFF722FD0C220821CD48FFF71DFD69
:100FE0000C220921CA48FFF718FD0C220A21C84823
:100FF000FFF713FD0C220E21C548FFF70EFD0C2252
:101000000F21C348FFF709FD0C220721C148FFF754
:1010100004FD0C220821BF48FFF7FFFC0C22092128
:10102000BC48FFF7FAFC0C220A21BA48FFF7F5FC8E
:101030000C220B21B748FFF7F0FC0C221146B548F3
:10104000FFF7EBFC0C220D21B248FFF7E6FC0C2267
:101050000E21B048FFF7E1FC0C220F21AD48FFF74D
:10106000DCFC0C221146AC48FFF7D7FC0C221146E1
:10107000AA48FFF7D2FC0F200890002009903C20DE
:101080000A9000200B900C900D900E90092001907A
:101090000020029008200390002004900590069004
:1010A000079006200F9000201090119010201290B1
:1010B0000020139015901490169017904FF48050C4
:1010C0001890002019904FF480401A9000201B9037
:1010D00008A81C9001A81D900FA8FFF7E3FB0121B1
:1010E0000620FFF7C5FB322004F094FD012100200B
:1010F00004F0ACF9322004F08DFD002003F0BAFBBF
:101100008749888008468088FF280ADB084680884F
:101110004FF6FF71884204D081488088B0F5134FA4
:101120007ED1D32004F07CF903F09AFB7C498880BF
:1011300003F096FB7A49888003F092FB7849888017
:10114000084680884FF6FF7101EA002074498880C4
:1011500003F086FB724989880843714988800846F4
:10116000808849F2413188425AD0BF2004F058F9B2
:1011700003F076FB6A49888003F072FB6849888037
:1011800003F06EFB6649888003F06AFB644988803F
:10119000084680884FF6FF7101EA00206049888088
:1011A00003F05EFB5E49898808435D4988800846F4
:1011B000808846F6040188427AD0D42004F030F9C1
:1011C00003F04EFB5649888003F04AFB544988805F
:1011D00003F046FB52498880084680884FF6FF712D
:1011E00001EA00204E49888003F03AFB4C49898887
:1011F00008434B4988800846808845F21031884270
:1012000056D04FF45A4004F00BF903F029FB44493F
:1012100088804FF45B4004F003F903F021FB00E009
:1012200046E03F498880084680884FF6FF7101EA12
:1012300000203B4988804FF45C4004F0F1F803F053
:101240000FFB3749898808433549888008468088DC
:10125000B0F5004F02D145F21050888030488088A8
:1012600045F21051884223D0A12004F0D9F803F0B0
:10127000F7FA2B49888003F0F3FA29498880084659
:1012800080884FF6FF7101EA00202549888003F02D
:10129000E7FA2349898808432149888008468088DD
:1012A00045F26171884203D141F663101C49888080
:1012B0001B48808849F24131884211D01848808803
:1012C00045F2103188420BD01548808845F2105104
:1012D000884205D01248808841F6631188422DD19A
:1012E0001048006820F00F004FF02041C1F81C01A9
:1012F0000846D0F81C0120F47060C1F81C010846B3
:10130000D0F81C0140F003000EE000000004024091
:10131000000C02400010024000140240001802407D
:10132000481100201C0100A0C1F81C010846D0F89B
:101330001C0140F40070C1F81C0128E0FE488088C0
:1013400046F60401884205D0FB4880884CF20551DE
:1013500088421CD1F948006820F00F004FF020416E
:10136000C1F81C010846D0F81C0120F47060C1F8D7
:101370001C010846D0F81C0140F00A00C1F81C010D
:101380000846D0F81C0140F44060C1F81C01EA484E
:101390008188EBA0FEF78EFFE748808849F2413153
:1013A00088427CD1CF2004F03BF8002004F02CF8D8
:1013B000C12004F029F8302004F026F8ED2004F0D4
:1013C0002FF8642004F020F8032004F01DF8122008
:1013D00004F01AF8812004F017F8E82004F020F84F
:1013E000852004F011F8102004F00EF87A2004F0A3
:1013F0000BF8CB2004F014F8392004F005F82C2069
:1014000004F002F8002003F0FFFF342003F0FCFF9B
:10141000022003F0F9FFF72004F002F8202003F087
:10142000F3FFEA2003F0FCFF002003F0EDFF0020B3
:1014300003F0EAFFC02003F0F3FF1B2003F0E4FFFA
:10144000C12003F0EDFF012003F0DEFFC52003F013
:10145000E7FF302003F0D8FF302003F0D5FFC7208E
:1014600003F0DEFFB72003F0CFFF362003F0D8FFF4
:10147000482003F0C9FF3A2003F0D2FF552003F0C3
:10148000C3FFB12003F0CCFF002003F0BDFF1A2002
:1014900003F0BAFFB62003F0C3FF0A2000E099E092
:1014A00003F0B2FFA22003F0AFFFF22003F0B8FF79
:1014B000002003F0A9FF262003F0B2FF012003F073
:1014C000A3FFE02003F0ACFF0F2003F09DFF2A20D4
:1014D00003F09AFF282003F097FF082003F094FF01
:1014E0000E2003F091FF082003F08EFF542003F03C
:1014F0008BFFA92003F088FF432003F085FF0A201B
:1015000003F082FF0F2003F07FFF002003F07CFF39
:10151000002003F079FF002003F076FF002003F0A5
:1015200073FFE12003F07CFF002003F06DFF152026
:1015300003F06AFF172003F067FF072003F064FF42
:10154000112003F061FF062003F05EFF2B2003F063
:101550005BFF562003F058FF3C2003F055FF0520A9
:1015600003F052FF102003F04FFF0F2003F04CFF59
:101570003F2003F049FF3F2003F046FF0F2003F018
:1015800043FF2B2003F04CFF002003F03DFF002021
:1015900003F03AFF012003F037FF3F2003F034FF50
:1015A0002A2003F03DFF002003F02EFF002003F06F
:1015B0002BFF002003F028FFEF2003F025FF112070
:1015C00003F02EFF782004F025FB292003F028FFEC
:1015D00003F02AB95848808846F6040188427CD135
:1015E000112003F01DFF142004F014FBD02003F0A1
:1015F00017FF072003F008FF422003F005FF1D201E
:1016000003F002FFD12003F00BFF002003F0FCFEEB
:101610001A2003F0F9FE092003F0F6FED22003F0B1
:10162000FFFE012003F0F0FE222003F0EDFEC020BB
:1016300003F0F6FE102003F0E7FE3B2003F0E4FE8B
:10164000002003F0E1FE022003F0DEFE112003F093
:10165000DBFEC52003F0E4FE032003F0D5FEC82026
:1016600003F0DEFE002003F0CFFE252003F0CCFEC9
:10167000212003F0C9FE052003F0C6FE002003F080
:10168000C3FE0A2003F0C0FE652003F0BDFE252046
:1016900003F0BAFE772003F0B7FE502003F0B4FE4B
:1016A0000F2003F0B1FE002003F0AEFEF82003F09F
:1016B000B7FE012003F0A8FEFE2003F0B1FE0020DB
:1016C00003F0A2FE022003F09FFE202003F0A8FEFC
:1016D000362003F0A5FE082000E039E003F094FE78
:1016E0003A2003F09DFE552003F08EFE2B2003F0E0
:1016F00097FE002003F088FE002003F085FE012005
:1017000003F082FE3F2003F07FFE2A2003F088FED4
:10171000002003F079FE002003F076FE012003F0A4
:1017200073FEDF2003F070FE782004F073FA2920A6
:1017300003F076FE4CE70000481100201C0100A0D9
:10174000204C43442049443A25780D0A000000000B
:10175000FE48808845F21031884240F07C87ED20B9
:1017600003F05EFE012003F04FFEFE2003F04CFE6E
:10177000EE2003F055FEDE2003F046FE212003F0AC
:1017800043FEF12003F04CFE012003F03DFEDF207C
:1017900003F046FE102003F037FEC42003F040FEA5
:1017A0008F2003F031FEC62003F03AFE002003F044
:1017B0002BFEE22003F028FEE22003F025FEE220CB
:1017C00003F022FEBF2003F02BFEAA2003F01CFE34
:1017D000B02003F025FE0D2003F016FE002003F0DC
:1017E00013FE0D2003F010FE002003F00DFE11206B
:1017F00003F00AFE002003F007FE192003F004FEA8
:10180000002003F001FE212003F0FEFD002003F084
:10181000FBFD2D2003F0F8FD002003F0F5FD3D2039
:1018200003F0F2FD002003F0EFFD5D2003F0ECFD7E
:10183000002003F0E9FD5D2003F0E6FD002003F049
:10184000E3FDB12003F0ECFD802003F0DDFD00207E
:1018500003F0DAFD8B2003F0D7FD002003F0D4FD68
:10186000962003F0D1FD002003F0CEFDB22003F05E
:10187000D7FD002003F0C8FD002003F0C5FD0220C5
:1018800003F0C2FD002003F0BFFD032003F0BCFD08
:10189000002003F0B9FDB32003F0C2FD002003F0E7
:1018A000B3FD002003F0B0FD002003F0ADFD0020EB
:1018B00003F0AAFD002003F0A7FD002003F0A4FD23
:1018C000002003F0A1FD002003F09EFD002003F0A6
:1018D0009BFD002003F098FD002003F095FD002003
:1018E00003F092FD002003F08FFD002003F08CFD3B
:1018F000002003F089FD002003F086FD002003F0A6
:1019000083FD002003F080FD002003F07DFD00201A
:1019100003F07AFD002003F077FD002003F074FD52
:10192000002003F071FD002003F06EFDB42003F0F1
:1019300077FD8B2003F068FD002003F065FD962005
:1019400003F062FD002003F05FFDA12003F05CFDC9
:10195000002003F059FDB52003F062FD022003F0E2
:1019600053FD002003F050FD032003F04DFD002047
:1019700003F04AFD042003F047FD002003F044FD7E
:10198000B62003F04DFD002003F03EFD002003F0E3
:101990003BFDB72003F044FD002003F035FD00209F
:1019A00003F032FD3F2003F02FFD002003F02CFD5B
:1019B0005E2003F029FD002003F026FD642003F0E3
:1019C00023FD002003F020FD8C2003F01DFD0020EE
:1019D00003F01AFDAC2003F017FD002003F014FD06
:1019E000DC2003F011FD002003F00EFD702003F059
:1019F0000BFD002003F008FD902003F005FD002002
:101A000003F002FDEB2003F0FFFC002003F0FCFCE0
:101A1000DC2003F0F9FC002003F0F6FCB82003F012
:101A2000FFFC002003F0F0FC002003F0EDFC0020A0
:101A300003F0EAFC002003F0E7FC002003F0E4FCE4
:101A4000002003F0E1FC002003F0DEFC002003F0A6
:101A5000DBFCBA2003F0E4FC242003F0D5FC0020DA
:101A600003F0D2FC002003F0CFFC002003F0CCFCFC
:101A7000C12003F0D5FC202003F0C6FC002003F0B9
:101A8000C3FC542003F0C0FC002003F0BDFCFF2089
:101A900003F0BAFC002003F0B7FCC22003F0C0FC46
:101AA0000A2003F0B1FC002003F0AEFC042003F098
:101AB000ABFC002003F0A8FCC32003F0B1FC3C20E9
:101AC00003F0A2FC002003F09FFC3A2003F09CFCF2
:101AD000002003F099FC392003F096FC002003F06D
:101AE00093FC372003F090FC002003F08DFC3C2099
:101AF00003F08AFC002003F087FC362003F084FC0E
:101B0000002003F081FC322003F07EFC002003F073
:101B10007BFC2F2003F078FC002003F075FC2C20C8
:101B200003F072FC002003F06FFC292003F06CFC32
:101B3000002003F069FC262003F066FC002003F07F
:101B400063FC242003F060FC002001E04811002029
:101B500003F05AFC242003F057FC002003F054FC4F
:101B6000232003F051FC002003F04EFC3C2003F046
:101B70004BFC002003F048FC362003F045FC00201D
:101B800003F042FC322003F03FFC002003F03CFC59
:101B90002F2003F039FC002003F036FC2C2003F04A
:101BA00033FC002003F030FC292003F02DFC002042
:101BB00003F02AFC262003F027FC002003F024FC7D
:101BC000242003F021FC002003F01EFC242003F05D
:101BD0001BFC002003F018FC232003F015FC002060
:101BE00003F012FCC42003F01BFC622003F00CFC89
:101BF000002003F009FC052003F006FC002003F0A0
:101C000003FC842003F000FC002003F0FDFBF02027
:101C100003F0FAFB002003F0F7FB182003F0F4FBBD
:101C2000002003F0F1FBA42003F0EEFB002003F002
:101C3000EBFB182003F0E8FB002003F0E5FB50204D
:101C400003F0E2FB002003F0DFFB0C2003F0DCFBE1
:101C5000002003F0D9FB172003F0D6FB002003F08F
:101C6000D3FB952003F0D0FB002003F0CDFBF32045
:101C700003F0CAFB002003F0C7FBE62003F0C4FB1F
:101C8000002003F0C1FBC52003F0CAFB322003F0A3
:101C9000BBFB002003F0B8FB442003F0B5FB0020A1
:101CA00003F0B2FB652003F0AFFB002003F0ACFBB8
:101CB000762003F0A9FB002003F0A6FB882003F0A8
:101CC000A3FB002003F0A0FBC62003F0A9FB20200B
:101CD00003F09AFB002003F097FB172003F094FB1E
:101CE000002003F091FB012003F08EFB002003F0A5
:101CF0008BFBC72003F094FB002003F085FB002042
:101D000003F082FB002003F07FFB002003F07CFB4C
:101D1000C82003F085FB002003F076FB002003F0D1
:101D200073FB002003F070FB002003F06DFBC92063
:101D300003F076FB002003F067FB002003F064FB58
:101D4000002003F061FB002003F05EFB002003F0A5
:101D50005BFB002003F058FB002003F055FB002044
:101D600003F052FB002003F04FFB002003F04CFB7C
:101D7000002003F049FB002003F046FB002003F0A5
:101D800043FB002003F040FB002003F03DFB00205C
:101D900003F03AFBE02003F043FB162003F034FB92
:101DA000002003F031FB1C2003F02EFB002003F089
:101DB0002BFB212003F028FB002003F025FB36201D
:101DC00003F022FB002003F01FFB462003F01CFB66
:101DD000002003F019FB522003F016FB002003F053
:101DE00013FB642003F010FB002003F00DFB7A20AE
:101DF00003F00AFB002003F007FB8B2003F004FB39
:101E0000002003F001FB992003F0FEFA002003F00C
:101E1000FBFAA82003F0F8FA002003F0F5FAB92045
:101E200003F0F2FA002003F0EFFAC42003F0ECFA1A
:101E3000002003F0E9FACA2003F0E6FA002003F0DC
:101E4000E3FAD22003F0E0FA002003F0DDFAD92013
:101E500003F0DAFA002003F0D7FAE02003F0D4FA16
:101E6000002003F0D1FAF32003F0CEFA002003F0B3
:101E7000CBFAE12003F0D4FA162003F0C5FA0020D3
:101E800003F0C2FA1C2003F0BFFA002003F0BCFAF2
:101E9000222003F0B9FA002003F0B6FA362003F04E
:101EA000B3FA002003F0B0FA452003F0ADFA0020A9
:101EB00003F0AAFA522003F0A7FA002003F0A4FAD4
:101EC000642003F0A1FA002003F09EFA7A2003F0C8
:101ED0009BFA002003F098FA8B2003F095FA00207B
:101EE00003F092FA992003F08FFA002003F08CFAA5
:101EF000A82003F089FA002003F086FAB92003F045
:101F000083FA002003F080FAC42003F07DFA002059
:101F100003F07AFACA2003F077FA002003F074FA8B
:101F2000D22003F071FA002003F06EFAD82003F0FB
:101F30006BFA002003F068FAE02003F065FA002055
:101F400003F062FAF32003F05FFA002003F05CFA7A
:101F5000E22003F065FA052003F056FA002003F0B2
:101F600053FA0B2003F050FA002003F04DFA1B2027
:101F700003F04AFA002003F047FA342003F044FA51
:101F8000002003F041FA442003F03EFA002003F061
:101F90003BFA4F2003F038FA002003F035FA6120B5
:101FA00003F032FA002003F02FFA792003F02CFA24
:101FB000002003F029FA882003F026FA002003F01D
:101FC00023FA972003F020FA002003F01DFAA62040
:101FD00003F01AFA002003F017FAB72003F014FAFE
:101FE000002003F011FAC22003F00EFA002003F0E3
:101FF0000BFAC72003F008FA002003F005FAD120FD
:1020000003F002FA002003F0FFF9D62003F0FCF9F8
:10201000002003F0F9F9DD2003F0F6F9002003F0C9
:10202000F3F9F32003F0F0F9002003F0EDF9E320D9
:1020300003F0F6F9052003F0E7F9002003F0E4F9D6
:102040000A2003F0E1F9002003F0DEF91C2003F080
:10205000DBF9002003F0D8F9332003F0D5F9002094
:1020600003F0D2F9442003F0CFF9002003F0CCF9BB
:10207000502003F0C9F9002003F0C6F9622003F0F4
:10208000C3F9002003F0C0F9782003F0BDF9002067
:1020900003F0BAF9882003F0B7F9002003F0B4F98F
:1020A000972003F0B1F9002003F0AEF9A62003F069
:1020B000ABF9002003F0A8F9B72003F0A5F9002040
:1020C00003F0A2F9C22003F09FF9002003F09CF96D
:1020D000C72003F099F9002003F096F9D12003F00E
:1020E00093F9002003F090F9D52003F08DF900203A
:1020F00003F08AF9DD2003F087F9002003F084F96A
:10210000F32003F081F9002003F07EF9E42003F0CE
:1021100087F9012003F078F9002003F075F9012018
:1021200003F072F9002003F06FF9022003F06CF95C
:10213000002003F069F92A2003F066F9002003F07B
:1021400063F93C2003F060F9002003F05DF94B20B7
:1021500003F05AF9002003F057F95D2003F054F919
:10216000002003F051F9742003F04EF9002003F031
:102170004BF9842003F048F9002003F045F993203F
:1021800003F042F9002003F03FF9A22003F03CF9EC
:10219000002003F039F9B32003F036F9002003F0F2
:1021A00033F9BE2003F030F9002003F02DF9C420EC
:1021B00003F02AF9002003F027F9CD2003F024F9D9
:1021C000002003F021F9D32003F01EF9002003F0D2
:1021D0001BF9DD2003F018F9002003F015F9F320B6
:1021E00003F012F9002003F00FF9E52003F018F9CD
:1021F000002003F009F9002003F006F9002003F0A5
:1022000003F9002003F000F9022003F0FDF800209C
:1022100003F0FAF8292003F0F7F8002003F0F4F8AF
:102220003C2003F0F1F8002003F0EEF84B2003F01F
:10223000EBF8002003F0E8F85D2003F0E5F800205B
:1022400003F0E2F8742003F0DFF8002003F0DCF87C
:10225000842003F0D9F8002003F0D6F8932003F08F
:10226000D3F8002003F0D0F8A22003F0CDF800202E
:1022700003F0CAF8B32003F0C7F8002003F0C4F855
:10228000BE2003F0C1F8002003F0BEF8C42003F024
:10229000BBF8002003F0B8F8CD2003F0B5F800201B
:1022A00003F0B2F8D32003F0AFF8002003F0ACF84D
:1022B000DC2003F0A9F8002003F0A6F8F32003F0D7
:1022C000A3F8002003F0A0F8E62003F0A9F81120FD
:1022D00003F09AF8002003F097F8342003F094F804
:1022E000002003F091F8562003F08EF8002003F050
:1022F0008BF8762003F088F8002003F085F877202B
:1023000003F082F8002003F07FF8662003F07CF8E9
:10231000002003F079F8882003F076F8002003F01D
:1023200073F8992003F070F8002003F06DF8BB20DB
:1023300003F06AF8002003F067F8992003F064F8CE
:10234000002003F061F8662003F05EF8002003F03F
:102350005BF8552003F058F8002003F055F855209D
:1023600003F052F8002003F04FF8452003F04CF83A
:10237000002003F049F8432003F046F8002003F062
:1023800043F8442003F040F8002003F03DF8E72034
:1023900003F046F8322003F037F8002003F034F859
:1023A000552003F031F8002003F02EF8762003F0DA
:1023B0002BF8002003F028F8662003F025F8002011
:1023C00003F022F8672003F01FF8002003F01CF848
:1023D000672003F019F8002003F016F8872003F0B7
:1023E00013F8002003F010F8992003F00DF80020F6
:1023F00003F00AF8BB2003F007F8002003F004F80C
:10240000992003F001F8002002F0FEFF772002F08F
:10241000FBFF002002F0F8FF442002F0F5FF00204F
:1024200002F0F2FF562002F0EFFF002002F0ECFF76
:10243000232002F0E9FF002002F0E6FF332002F043
:10244000E3FF002002F0E0FF452002F0DDFF002066
:1024500002F0DAFFE82002F0E3FF002002F0D4FFF0
:10246000002002F0D1FF992002F0CEFF002002F000
:10247000CBFF872002F0C8FF002002F0C5FF8820B4
:1024800002F0C2FF002002F0BFFF772002F0BCFF85
:10249000002002F0B9FF662002F0B6FF002002F033
:1024A000B3FF882002F0B0FF002002F0ADFFAA20A9
:1024B00002F0AAFF002002F0A7FFBB2002F0A4FF59
:1024C000002002F0A1FF992002F09EFF002002F000
:1024D0009BFF662002F098FF002002F095FF552038
:1024E00002F092FF002002F08FFF552002F08CFFD7
:1024F000002002F089FF442002F086FF002002F055
:1025000083FF442002F080FF002002F07DFF552071
:1025100002F07AFF002002F077FFE92002F080FF4E
:10252000AA2002F071FF002002F06EFF002002F0EE
:102530006BFF002002F068FF002002F071FFAA206C
:1025400002F062FFCF2002F06BFF002002F05CFF80
:10255000002002F059FF002002F056FF002002F098
:1025600053FF002002F050FF002002F04DFF00203A
:1025700002F04AFF002002F047FF002002F044FF73
:10258000002002F041FF002002F03EFF002002F098
:102590003BFF002002F038FF002002F035FF002052
:1025A00002F032FF002002F02FFF002002F02CFF8B
:1025B000F02002F035FF002002F026FF502002F04C
:1025C00023FF002002F020FF002002F01DFF00206A
:1025D00002F01AFFF32002F023FF002002F014FFA4
:1025E000F92002F01DFF062002F00EFF102002F07D
:1025F0000BFF292002F008FF002002F005FF3A201F
:1026000002F00EFF552002F0FFFE112002F008FF3D
:10261000642003F0FFFA292002F002FF352002F0C7
:10262000FFFE002002F0F0FE512002F0F9FEFF2034
:1026300002F0EAFE532002F0F3FE2C2002F0E4FE4A
:10264000552002F0EDFE822002F0DEFE2C2002F08A
:10265000E7FE02F0E9B8FE48808845F21051884252
:102660007ED155214FF4704002F0F0FEAA214FF2C6
:10267000010002F0EBFE52214FF2020002F0E6FEF2
:1026800008214FF2030002F0E1FE01214FF20400A5
:1026900002F0DCFE0D214FF4304002F0D7FE0D2198
:1026A0004BF2010002F0D2FE0D214BF2020002F0CB
:1026B000CDFE34214FF4364002F0C8FE34214BF2F7
:1026C000016002F0C3FE34214BF2026002F0BEFE54
:1026D0000D214FF4314002F0B9FE0D214BF20110F3
:1026E00002F0B4FE0D214BF2021002F0AFFE3421D5
:1026F0004FF4374002F0AAFE34214BF2017002F091
:10270000A5FE34214BF2027002F0A0FE00214FF42E
:10271000324002F09BFE00214BF2012002F096FEB7
:1027200000214BF2022002F091FE24214FF43840A8
:1027300002F08CFE24214BF6010002F087FE2421DA
:102740004BF6020002F082FE01214FF43F4002F0FE
:102750007DFE0F214FF4334002F078FE0F2100E0A0
:10276000FEE34BF2013002F071FE0F214BF202301A
:1027700002F06CFE34214FF4394002F067FE342140
:102780004BF6011002F062FE34214BF6021002F00B
:102790005DFE08214FF4354002F058FE08214BF24F
:1027A000015002F053FE08214BF2025002F04EFE9F
:1027B00003214FF4424002F049FE24214FF43A40F5
:1027C00002F044FE24214BF6012002F03FFE2421BA
:1027D0004BF6022002F03AFE00214FF43C4002F09A
:1027E00035FE78214BF6014002F030FE00214BF619
:1027F000024002F02BFE00214FF43D4002F026FE85
:1028000078214BF6015002F021FE00214BF60250D8
:1028100002F01CFE00214FF43E4002F017FE64213E
:102820004BF6016002F012FE00214FF4514002F01D
:102830000DFE33214DF2011002F008FE00214DF291
:10284000021002F003FE34214DF2031002F0FEFDEF
:1028500000214DF2041002F0F9FD3A214DF205106D
:1028600002F0F4FD00214DF2061002F0EFFD4A21C6
:102870004DF2071002F0EAFD00214DF2081002F0BF
:10288000E5FD5C214DF2091002F0E0FD00214DF262
:102890000A1002F0DBFD81214DF20B1002F0D6FD93
:1028A00000214DF20C1002F0D1FDA6214DF20D10C9
:1028B00002F0CCFD00214DF20E1002F0C7FDE52123
:1028C0004DF20F1002F0C2FD01214DF2101002F086
:1028D000BDFD13214DF2111002F0B8FD01214DF2A2
:1028E000121002F0B3FD54214DF2131002F0AEFDB0
:1028F00001214DF2141002F0A9FD82214DF21510B4
:1029000002F0A4FD01214DF2161002F09FFDCA2134
:102910004DF2171002F09AFD02214DF2181002F04C
:1029200095FD00214DF2191002F090FD02214DF2AB
:102930001A1002F08BFD01214DF21B1002F086FDF2
:1029400002214DF21C1002F081FD34214DF21D10C8
:1029500002F07CFD02214DF21E1002F077FD67218E
:102960004DF21F1002F072FD02214DF2201002F014
:102970006DFD84214DF2211002F068FD02214DF21F
:10298000221002F063FDA4214DF2231002F05EFD3F
:1029900002214DF2241002F059FDB7214DF225100D
:1029A00002F054FD02214DF2261002F04FFDCF211E
:1029B0004DF2271002F04AFD02214DF2281002F0DC
:1029C00045FDDE214DF2291002F040FD02214DF2BD
:1029D0002A1002F03BFDF2214DF22B1002F036FDE1
:1029E00002214DF22C1002F031FDFE214DF22D108E
:1029F00002F02CFD03214DF22E1002F027FD1021D4
:102A00004DF22F1002F022FD03214DF2301002F0A2
:102A10001DFD33214DF2311002F018FD03214DF25E
:102A2000321002F013FD6D214DF2331002F00EFD55
:102A300000214FF4524002F009FD33214DF20120F4
:102A400002F004FD00214DF2022002F0FFFC01E043
:102A50004811002034214DF2032002F0F7FC002140
:102A60004DF2042002F0F2FC3A214DF2052002F072
:102A7000EDFC00214DF2062002F0E8FC4A214DF267
:102A8000072002F0E3FC00214DF2082002F0DEFCFA
:102A90005C214DF2092002F0D9FC00214DF20A2000
:102AA00002F0D4FC81214DF20B2002F0CFFC00217A
:102AB0004DF20C2002F0CAFCA6214DF20D2002F0CE
:102AC000C5FC00214DF20E2002F0C0FCE5214DF2C4
:102AD0000F2002F0BBFC01214DF2102002F0B6FCE9
:102AE00013214DF2112002F0B1FC01214DF2122010
:102AF00002F0ACFC54214DF2132002F0A7FC01219E
:102B00004DF2142002F0A2FC82214DF2152002F0B9
:102B10009DFC01214DF2162002F098FCCA214DF2D5
:102B2000172002F093FC02214DF2182002F08EFCD7
:102B300000214DF2192002F089FC02214DF21A20E9
:102B400002F084FC01214DF21B2002F07FFC0221E7
:102B50004DF21C2002F07AFC34214DF21D2002F0CF
:102B600075FC02214DF21E2002F070FC67214DF22F
:102B70001F2002F06BFC02214DF2202002F066FCC7
:102B800084214DF2212002F061FC02214DF222202D
:102B900002F05CFCA4214DF2232002F057FC02213C
:102BA0004DF2242002F052FCB7214DF2252002F014
:102BB0004DFC02214DF2262002F048FCCF214DF2BF
:102BC000272002F043FC02214DF2282002F03EFCB7
:102BD000DE214DF2292002F039FC02214DF22A209B
:102BE00002F034FCF2214DF22B2002F02FFC0221E6
:102BF0004DF22C2002F02AFCFE214DF22D2002F095
:102C000025FC03214DF22E2002F020FC10214DF274
:102C10002F2002F01BFC03214DF2302002F016FCA5
:102C200033214DF2312002F011FC03214DF232200C
:102C300002F00CFC6D214DF2332002F007FC002164
:102C40004FF4534002F002FC33214DF2013002F008
:102C5000FDFB00214DF2023002F0F8FB34214DF271
:102C6000033002F0F3FB00214DF2043002F0EEFBE2
:102C70003A214DF2053002F0E9FB00214DF2063019
:102C800002F0E4FB4A214DF2073002F0DFFB0021A5
:102C90004DF2083002F0DAFB5C214DF2093002F00F
:102CA000D5FB00214DF20A3002F0D0FB81214DF21C
:102CB0000B3002F0CBFB00214DF20C3002F0C6FBD2
:102CC000A6214DF20D3002F0C1FB00214DF20E3075
:102CD00002F0BCFBE5214DF20F3002F0B7FB012101
:102CE0004DF2103002F0B2FB13214DF2113002F020
:102CF000ADFB01214DF2123002F0A8FB54214DF240
:102D0000133002F0A3FB01214DF2143002F09EFBC0
:102D100082214DF2153002F099FB01214DF216305F
:102D200002F094FBCA214DF2173002F08FFB022112
:102D30004DF2183002F08AFB00214DF2193002F0FA
:102D400085FB02214DF21A3002F080FB01214DF289
:102D50001B3002F07BFB02214DF21C3002F076FBAF
:102D600034214DF21D3002F071FB02214DF21E3074
:102D700002F06CFB67214DF21F3002F067FB02216D
:102D80004DF2203002F062FB84214DF2213002F03E
:102D90005DFB02214DF2223002F058FBA4214DF2DE
:102DA000233002F053FB02214DF2243002F04EFB9F
:102DB000B7214DF2253002F049FB02214DF22630B9
:102DC00002F044FBCF214DF2273002F03FFB0221FD
:102DD0004DF2283002F03AFBDE214DF2293002F0AC
:102DE00035FB02214DF22A3002F030FBF2214DF288
:102DF0002B3002F02BFB02214DF22C3002F026FB8F
:102E0000FE214DF22D3002F021FB03214DF22E3038
:102E100002F01CFB10214DF22F3002F017FB0321B2
:102E20004DF2303002F012FB33214DF2313002F01E
:102E30000DFB03214DF2323002F008FB6D214DF203
:102E4000333002F003FB00214FF4544002F0FEFA4D
:102E500033214DF2014002F0F9FA00214DF2024017
:102E600002F0F4FA34214DF2034002F0EFFA0021AF
:102E70004DF2044002F0EAFA3A214DF2054002F028
:102E8000E5FA00214DF2064002F0E0FA4A214DF247
:102E9000074002F0DBFA00214DF2084002F0D6FABA
:102EA0005C214DF2094002F0D1FA00214DF20A40B6
:102EB00002F0CCFA81214DF20B4002F0C7FA00215A
:102EC0004DF20C4002F0C2FAA6214DF20D4002F084
:102ED000BDFA00214DF20E4002F0B8FAE5214DF2A4
:102EE0000F4002F0B3FA01214DF2104002F0AEFAA9
:102EF00013214DF2114002F0A9FA01214DF21240C6
:102F000002F0A4FA54214DF2134002F09FFA01217D
:102F10004DF2144002F09AFA82214DF2154002F06F
:102F200095FA01214DF2164002F090FACA214DF2B5
:102F3000174002F08BFA02214DF2184002F086FA97
:102F400000214DF2194002F081FA02214DF21A409F
:102F500002F07CFA01214DF21B4002F077FA00E00A
:102F600004E302214DF21C4002F070FA34214DF2CC
:102F70001D4002F06BFA02214DF21E4002F066FA8B
:102F800067214DF21F4002F061FA02214DF220400C
:102F900002F05CFA84214DF2214002F057FA02213E
:102FA0004DF2224002F052FAA4214DF2234002F0E9
:102FB0004DFA02214DF2244002F048FAB7214DF2B9
:102FC000254002F043FA02214DF2264002F03EFA7B
:102FD000CF214DF2274002F039FA02214DF228406C
:102FE00002F034FADE214DF2294002F02FFA0221DC
:102FF0004DF22A4002F02AFAF2214DF22B4002F063
:1030000025FA02214DF22C4002F020FAFE214DF269
:103010002D4002F01BFA03214DF22E4002F016FA69
:1030200010214DF22F4002F011FA03214DF23040F1
:1030300002F00CFA33214DF2314002F007FA03217D
:103040004DF2324002F002FA6D214DF2334002F0AF
:10305000FDF900214FF4554002F0F8F933214DF20B
:10306000015002F0F3F900214DF2025002F0EEF9A6
:1030700034214DF2035002F0E9F900214DF20450E1
:1030800002F0E4F93A214DF2055002F0DFF9002197
:103090004DF2065002F0DAF94A214DF2075002F0E3
:1030A000D5F900214DF2085002F0D0F95C214DF223
:1030B000095002F0CBF900214DF20A5002F0C6F996
:1030C00081214DF20B5002F0C1F900214DF20C505C
:1030D00002F0BCF9A6214DF20D5002F0B7F9002123
:1030E0004DF20E5002F0B2F9E5214DF20F5002F010
:1030F000ADF901214DF2105002F0A8F913214DF263
:10310000115002F0A3F901214DF2125002F09EF984
:1031100054214DF2135002F099F901214DF214504F
:1031200002F094F982214DF2155002F08FF901213D
:103130004DF2165002F08AF9CA214DF2175002F0F2
:1031400085F902214DF2185002F080F900214DF26C
:10315000195002F07BF902214DF21A5002F076F973
:1031600001214DF21B5002F071F902214DF21C5069
:1031700002F06CF934214DF21D5002F067F9022182
:103180004DF21E5002F062F967214DF21F5002F01D
:103190005DF902214DF2205002F058F984214DF2E0
:1031A000215002F053F902214DF2225002F04EF963
:1031B000A4214DF2235002F049F902214DF224508E
:1031C00002F044F9B7214DF2255002F03FF90221F7
:1031D0004DF2265002F03AF9CF214DF2275002F07D
:1031E00035F902214DF2285002F030F9DE214DF27E
:1031F000295002F02BF902214DF22A5002F026F953
:10320000F2214DF22B5002F021F902214DF22C5007
:1032100002F01CF9FE214DF22D5002F017F90321A6
:103220004DF22E5002F012F910214DF22F5002F003
:103230000DF903214DF2305002F008F933214DF21F
:10324000315002F003F903214DF2325002F0FEF842
:103250006D214DF2335002F0F9F800214FF4564041
:1032600002F0F4F833214DF2016002F0EFF8002192
:103270004DF2026002F0EAF834214DF2036002F0F0
:10328000E5F800214DF2046002F0E0F83A214DF239
:10329000056002F0DBF800214DF2066002F0D6F87E
:1032A0004A214DF2076002F0D1F800214DF208608A
:1032B00002F0CCF85C214DF2096002F0C7F8002161
:1032C0004DF20A6002F0C2F881214DF20B6002F06B
:1032D000BDF800214DF20C6002F0B8F8A6214DF2C5
:1032E0000D6002F0B3F800214DF20E6002F0AEF86E
:1032F000E5214DF20F6002F0A9F801214DF21060B6
:1033000002F0A4F813214DF2116002F09FF80121A0
:103310004DF2126002F09AF854214DF2136002F05F
:1033200095F801214DF2146002F090F882214DF2DF
:10333000156002F08BF801214DF2166002F086F85C
:10334000CA214DF2176002F081F802214DF2186097
:1033500002F07CF800214DF2196002F077F80221AA
:103360004DF21A6002F072F801214DF21B6002F07A
:103370006DF802214DF21C6002F068F834214DF224
:103380001D6002F063F802214DF21E6002F05EF84B
:1033900067214DF21F6002F059F802214DF22060C2
:1033A00002F054F884214DF2216002F04FF802211E
:1033B0004DF2226002F04AF8A4214DF2236002F09F
:1033C00045F802214DF2246002F040F8B7214DF299
:1033D000256002F03BF802214DF2266002F036F83B
:1033E000CF214DF2276002F031F802214DF2286022
:1033F00002F02CF8DE214DF2296002F027F80221BC
:103400004DF22A6002F022F8F2214DF22B6002F018
:103410001DF802214DF22C6002F018F8FE214DF249
:103420002D6002F013F803214DF22E6002F00EF829
:1034300010214DF22F6002F009F803214DF23060A7
:1034400002F004F833214DF2316001F0FFFF032157
:103450004DF2326001F0FAFF6D214DF2336001F060
:10346000F5FF55214FF4704001F0F0FFAA214FF213
:10347000010001F0EBFF52214FF2020001F0E6FFE4
:1034800008214FF2030001F0E1FF00214FF2040098
:1034900001F0DCFFCC214FF4314001F0D7FF0021D7
:1034A0004BF2011001F0D2FF05214FF4364001F03C
:1034B000CDFF70214FF4374001F0C8FF70214BF26F
:1034C000017001F0C3FF01214FF4384001F0BEFF4D
:1034D00003214BF6010001F0B9FF03214BF6020076
:1034E00001F0B4FF03214BF6030001F0AFFF02210E
:1034F0004FF43C4001F0AAFF00214BF6014001F0DF
:10350000A5FF00214BF6024001F0A0FFD0214FF4AF
:10351000494001F09BFF02214CF6011001F096FF9B
:1035200050214CF6021001F091FF50214CF603108F
:1035300001F08CFF50214CF6041001F087FF0021B0
:103540004FF4545001F082FF55214FF4685001F0C0
:103550007DFF4FF4885001F063FF782002F076FB86
:103560004FF4245001F05CFF01F05EB9FE48808802
:1035700049F2253188427DD147F6F001E52001F07E
:1035800065FF4FF48071012001F060FF4FF4E061AE
:10359000022001F05BFF41F23001032001F056FFF1
:1035A0000021042001F052FF40F20221082001F026
:1035B0004DFF0021092001F049FF00210A2001F000
:1035C00045FF00210C2001F041FF00210D2001F0FA
:1035D0003DFF00210F2001F039FF0021102001F0F4
:1035E00035FF0721112001F031FF0021122001F0E9
:1035F0002DFF0021132001F029FF0021072001F0F9
:1036000025FF41F29061102001F020FF40F22721B8
:10361000112001F01BFF9D21122001F017FF4FF434
:10362000C851132001F012FF2521292001F00EFFBF
:103630000D212B2001F00AFF0721302001F006FFA9
:1036400040F20331312001F001FF0321322001F06B
:10365000FDFE40F20621352001F0F8FE082136205B
:1036600001F0F4FE40F20641372001F0EFFE4FF486
:10367000417100E058E0382001F0E8FE07213920D0
:1036800001F0E4FE40F202613C2001F0DFFE08217F
:103690003D2001F0DBFE0021502001F0D7FEEF219C
:1036A000512001F0D3FE0021522001F0CFFE40F264
:1036B0003F11532001F0CAFE4FF42741602001F072
:1036C000C5FE0121612001F0C1FE00216A2001F048
:1036D000BDFE0021802001F0B9FE0021812001F013
:1036E000B5FE0021822001F0B1FE0021832001F00F
:1036F000ADFE0021842001F0A9FE0021852001F00B
:10370000A5FE1021902001F0A1FE4FF4C06192208F
:1037100001F09CFE40F23311072001F097FE2221B8
:10372000002001F093FE1FE78F48808849F228317E
:1037300088427DD141F28F01EC2001F087FE41F2F9
:103740003421EF2001F082FE4FF48071012001F05E
:103750007DFE4FF4E061022001F078FE41F230017D
:10376000032001F073FE0021042001F06FFE40F2FF
:103770000221082001F06AFE0021092001F066FE06
:1037800000210A2001F062FE01210C2001F05EFE02
:1037900000210D2001F05AFE00210F2001F056FEFD
:1037A0000021102001F052FE0721112001F04EFEF1
:1037B0000021122001F04AFE0021132001F046FEF4
:1037C0000121072001F042FE322002F023FA41F2EB
:1037D0009041102001F03AFE40F22721112001F023
:1037E00035FE322002F016FA8A21122001F02EFE58
:1037F000322002F00FFA4FF4D051132001F026FED0
:103800000621292001F022FE0D212B2001F01EFEB1
:10381000322002F0FFF90021202001F017FE0021E4
:10382000212001F013FE322002F0F4F9002100E023
:1038300075E0302001F00AFE40F20461312001F011
:1038400005FE40F20531322001F000FE0021352056
:1038500001F0FCFD40F60941362001F0F7FD4FF480
:103860000171372001F0F2FD40F20131382001F002
:10387000EDFD40F20771392001F0E8FD00213C2008
:1038800001F0E4FD40F60A213D2001F0DFFD322089
:1038900002F0C0F90021502001F0D8FDEF215120A5
:1038A00001F0D4FD0021522001F0D0FD40F23F1183
:1038B000532001F0CBFD4FF42741602001F0C6FDFD
:1038C0000121612001F0C2FD00216A2001F0BEFD4E
:1038D0000021802001F0BAFD0021812001F0B6FD19
:1038E0000021822001F0B2FD0021832001F0AEFD15
:1038F0000021842001F0AAFD0021852001F0A6FD11
:103900001021902001F0A2FD4FF4C061922001F03F
:103910009DFD40F23311072001F098FD24E6124886
:10392000808849F2203188427ED10021084601F08A
:103930008DFD4FF48071012001F088FD4FF4E061AE
:10394000022001F083FD41F23001032001F07EFDF1
:103950000021042001F07AFD40F20221082001F04C
:1039600075FD0021092001E04811002001F06EFDE5
:1039700000210A2001F06AFD01210C2001F066FD02
:1039800000210D2001F062FD00210F2001F05EFDFD
:10399000322002F03FF940F20111072001F056FDFC
:1039A000322002F037F94FF48651102001F04EFD1D
:1039B0000721112001F04AFD4FF48871122001F017
:1039C00045FD4FF43061132001F040FD0021292016
:1039D00001F03CFD44F210012B2001F037FD0021E5
:1039E000502001F033FDEF21512001F02FFD002187
:1039F000522001F02BFD40F23F11532001F026FD33
:103A00004FF41C51602001F021FD0121612001F0E3
:103A10001DFD00216A2001F019FD0021802001F028
:103A200015FD0021812000E030E001F00FFD0021B4
:103A3000822001F00BFD0021832001F007FD002111
:103A4000842001F003FD0021852001F0FFFC1021FE
:103A5000902001F0FBFC0021922001F0F7FC0121F5
:103A6000932001F0F3FC4FF48871952001F0EEFCF7
:103A70000021972001F0EAFC0021982001F0E6FCEB
:103A800040F27311072001F0E1FC6DE5FE488088EB
:103A900049F2313188427DD141F21401E72001F031
:103AA000D5FC4FF48071012001F0D0FC4FF400717F
:103AB000022001F0CBFC41F23801032001F0C6FCEA
:103AC00040F20221082001F0C1FC0021092001F090
:103AD000BDFC00210A2001F0B9FC00210C2001F0FE
:103AE000B5FC00210D2001F0B1FC00210F2001F0F8
:103AF000ADFC0021102001F0A9FC0721112001F0EC
:103B0000A5FC0021122001F0A1FC0021132001F0EE
:103B10009DFCC82002F07EF841F29061102001F077
:103B200095FC40F22721112001F090FC322002F098
:103B300071F80C21122001F089FC322002F06AF8A1
:103B40004FF40061132001F081FC1121292001F0C4
:103B50007DFC0B212B2001F079FC322002F05AF879
:103B60000021202001F072FC40F23F11212001F0E1
:103B70006DFC0021302001F069FC4FF4837131208D
:103B800001F064FC0021322001F060FC4FF401716F
:103B9000352000E064E001F059FC41F20A61362072
:103BA00001F054FC40F20771372001F04FFC4FF454
:103BB0008371382001F04AFC40F20771392001F08E
:103BC00045FC40F202413C2001F040FC40F60F4130
:103BD0003D2001F03BFC0021502001F037FCEF219B
:103BE000512001F033FC0021522001F02FFC40F263
:103BF0003F11532001F02AFC4FF41C51602001F0CA
:103C000025FC0121612001F021FC00216A2001F046
:103C10001DFC0021802001F019FC0021812001F011
:103C200015FC0021822001F011FC0021832001F00D
:103C30000DFC0021842001F009FC0021852001F009
:103C400005FC1021902001F001FC4FF4C06192208E
:103C500001F0FCFB40F23311072001F0F7FB83E495
:103C60008948808845F2084188427DD14FF48071AF
:103C7000012001F0EBFB4FF4E061022001F0E6FBD4
:103C800041F23001032001F0E1FB0021042001F0AA
:103C9000DDFB40F20721082001F0D8FB00210920BC
:103CA00001F0D4FB00210A2001F0D0FB00210C2000
:103CB00001F0CCFB00210D2001F0C8FB00210F20FA
:103CC00001F0C4FB142001F0A5FF41F2B061102007
:103CD00001F0BCFB0121112001F0B8FB01211720EC
:103CE00001F0B4FB4FF49C71122001F0AFFB4FF4D4
:103CF0000061132001F0AAFB0921292001F0A6FB95
:103D000009212A2001F0A2FB0021A42001F09EFB42
:103D10000021502001F09AFBEF21512001F096FB89
:103D20000021522001F092FB40F23F11532001F09C
:103D30008DFB4FF41C51602001F088FB01216120B4
:103D400001F084FB00216A2001F080FB002180202B
:103D500001F07CFB0021812001F078FB0021822012
:103D600001F074FB002100E024E0832001F06EFBF1
:103D70000021842001F06AFB0021852001F066FB10
:103D80001321902001F062FB0021922001F05EFBE4
:103D90000321932001F05AFB4FF48871952001F024
:103DA00055FB40F27311072001F050FB322001F067
:103DB00031FFB8E43448808841F2055188427DD112
:103DC0000021072001F042FB322001F023FF4FF4D5
:103DD0008E71122001F03AFB0121A42001F036FB84
:103DE0000F21082001F032FB08210A2001F02EFBF0
:103DF00008210D2001F02AFB40F20771302001F06C
:103E000025FB0721312001F021FB40F20361322024
:103E100001F01CFB4FF4E061332001F017FB40F28E
:103E20000221342001F012FB0221352001F00EFBAB
:103E300041F60F71362001F009FB40F2077137207F
:103E400001F004FB0021382001F000FB00213920A3
:103E500001F0FCFA40F207713A2001F0F7FA002174
:103E60003B2001F0F3FA07213C2001F0EFFA00219A
:103E70003D2001F0EBFA322001F0CCFE01210720B9
:103E800001F0E4FA012101E048110020172001F0BF
:103E9000DDFA322001F0BEFE4FF4BD51102001F0DA
:103EA000D5FA40F21721112001F0D0FA4FF48F71AA
:103EB000122001F0CBFA4FF4706100E098E013207B
:103EC00001F0C4FA00212A2001F0C0FA0A212920B9
:103ED00001F0BCFA4FF49F71122001F0B7FA0021F3
:103EE000502001F0B3FAEF21512001F0AFFA002188
:103EF000522001F0ABFA40F23F11532001F0A6FA34
:103F00004FF41C51602001F0A1FA0121612001F061
:103F10009DFA00216A2001F099FA0021802001F029
:103F200095FA0021812001F091FA0021822001F010
:103F30008DFA0021832001F089FA0021842001F00C
:103F400085FA0021852001F081FA1321902001F0EB
:103F50007DFA4FF44071922001F078FA0521932008
:103F600001F074FA0021952001F070FA00219720E9
:103F700001F06CFA0021982001F068FA4FF480718A
:103F8000012001F063FA4FF4E061022001F05EFAD3
:103F900041F23801032001F059FA0021042001F018
:103FA00055FA00210C2001F051FA00210F2001F0F8
:103FB0004DFA0021202001F049FA0021212001F0D2
:103FC00045FA2121072001F041FA142001F022FED8
:103FD0006121072001F03AFA142001F01BFE40F2A3
:103FE0007311072001F032FA142001F013FE95E45A
:103FF000FE4880884BF2055188427CD1002108465A
:1040000001F024FA0021084601F020FA00210846B8
:1040100001F01CFA0021084601F018FA0121A42041
:1040200001F014FA142001F0F5FD4FF41C5160204A
:1040300001F00CFA40F20221082001F007FA4FF4D7
:104040000571302001F002FA43F21571312001F0C0
:10405000FDF940F20461322001F0F8F940F61661F2
:10406000332001F0F3F942F21121342001F0EEF98E
:104070004FF4A851352001F0E9F948F207513620F4
:1040800001F0E4F941F20741372001F0DFF941F294
:104090000341382001F0DAF92021392001F0D6F966
:1040A0001A21902001F0D2F90021102001F0CEF960
:1040B0000721112001F0CAF90021122001F0C6F9F0
:1040C0000021132001F0C2F9142001F0A3FD4FF4E8
:1040D000E661102001F0BAF940F23711112001F029
:1040E000B5F9142001F096FD4FF4DC71122001F0B7
:1040F000ADF9142000E085E001F08CFD4FF4706113
:10410000132001F0A3F980212A2001F09FF9482112
:10411000292001F09BF9142001F07CFD4FF48071FF
:10412000012001F093F94FF4E061022001F08EF9D3
:1041300041F23801032001F089F940F20221082000
:1041400001F084F900210A2001F080F900210C20FF
:1041500001F07CF900210D2001F078F930210E20CA
:1041600001F074F90021502001F070F9EF21512085
:1041700001F06CF90021522001F068F940F23F1182
:10418000532001F063F94FF41C51602001F05EF9F7
:104190000121612001F05AF900216A2001F056F94D
:1041A0001121902001F052F94FF4C061922001F0EA
:1041B0004DF940F20241932001F048F90221942088
:1041C00001F044F9142001F025FD0121072001F040
:1041D0003DF9142001F01EFD6121072001F036F9A0
:1041E00040F27311072001F031F90021202001F085
:1041F0002DF90021212001F029F92221002001F0D0
:1042000025F911E3794880884CF2055188427CD128
:104210000021084601F01AF90021084601F016F9BC
:10422000142001F0F7FC0021084601F00FF90021ED
:10423000084601F00BF90021084601F007F90021BA
:10424000084601F003F90121A42001F0FFF8142031
:1042500001F0E0FC4FF41C51602001F0F7F840F64B
:104260000601082001F0F2F840F20371302001F05D
:10427000EDF80121312001F0E9F80421322001F0AC
:10428000E5F84FF48171332001F0E0F84FF440710C
:10429000342001F0DBF840F20311352001F0D6F8AC
:1042A0001F21362001F0D2F840F20371372001F0CF
:1042B000CDF80121382001F0C9F80421392001F09E
:1042C000C5F81521902001F0C1F84FF4826110204B
:1042D00001F0BCF840F24721112001F0B7F84FF48B
:1042E000DE71122001F0B2F84FF46061132001F08A
:1042F000ADF8782001F08EFC4FF48071012001F0C0
:10430000A5F84FF40071022000E052E001F09EF8A1
:1043100041F23001032001F099F808210A2001F050
:1043200095F800210C2001F091F820210E2001F0D9
:104330008DF800210F2001F089F80021202001F0E4
:1043400085F80021212001F081F83D212A2001F08B
:104350007DF8142001F05EFC2D21292001F076F873
:104360000021502001F072F84DF2EF01512001F0D0
:104370006DF80021522001F069F840F23F115320FE
:1043800001F064F80021612001F060F800216A204A
:1043900001F05CF84FF44071922001F057F80521CC
:1043A000932001F053F84FF48071072001F04EF88C
:1043B0003AE20E48808844F2315188427ED1012190
:1043C000002001F043F80A2001F024FC41F22861AA
:1043D000102001F03BF80E21122001F037F840F6D2
:1043E0003921132001F032F80A2001E048110020A1
:1043F00001F010FC4021112001F028F85021152077
:1044000001F024F80A2001F005FC1E21122001F021
:104410001DF80A2001F0FEFB4FF4B151102001F00D
:1044200015F842F63921132001F010F80A2001F0A6
:10443000F1FB4FF48071012001F008F84FF4407156
:10444000022001F003F841F23801032000F0FEFFE2
:1044500040F20221082000F0F9FF08210A2000F0B4
:10446000F5FF0021302000F0F1FF40F20241312041
:1044700000F0ECFF4FF48371322000F0E7FF40F2D0
:104480000351332000F0E2FF4FF48271342000F03A
:10449000DDFF40F20131352000F0D8FF40F2077116
:1044A000362000F0D3FF40F20531372000F0CEFF78
:1044B0004FF40271382000F0C9FF00E03EE040F602
:1044C0000B71392000F0C2FF0221412000F0BEFF35
:1044D0004FF41C51602000F0B9FF0121612000F071
:1044E000B5FF4FF40471902000F0B0FF4FF48571D8
:1044F000922000F0ABFF0421932000F0A7FF4FF4BF
:104500008071A02000F0A2FF0121072000F09EFF93
:104510002121072000F09AFF2321072000F096FFB9
:104520003321072000F092FF40F23311072000F002
:104530008DFF0021A02000F089FF75E1C048808830
:1045400044F2355188427CD13021152000F07EFFA5
:1045500010219A2000F07AFF2021112000F076FF30
:1045600043F22841102000F071FF0221122000F0D8
:104570006DFF41F23801132000F068FF282001F0A0
:1045800049FB1221084600F061FF282001F042FBA0
:1045900043F22041102000F059FF43F2380113206C
:1045A00000F054FF462001F035FB0021302000F0E0
:1045B0004DFF40F20241312000F048FF40F2073148
:1045C000322000F043FF4FF44171332000F03EFFF2
:1045D0000421342000F03AFF40F20141352000F080
:1045E00035FF40F20771362000F030FF40F2053110
:1045F000372000F02BFF4FF4C261382000F026FF77
:104600004FF4C261392000F021FF4FF48071012086
:1046100000F01CFF4FF44071022000F017FF41F240
:104620003001032000F012FF40F60801082000F0DE
:104630000DFF08210A2000F009FF4FF41C516020F3
:1046400000E033E000F002FF0121612000F0FEFEF7
:104650004FF49F71902000F0F9FE4FF4807192208A
:1046600000F0F4FE4FF48071932000F0EFFE4FF461
:104670004051A02000F0EAFE1021A32000F0E6FE49
:104680000121072000F0E2FE2121072000F0DEFEDC
:104690002321072000F0DAFE3321072000F0D6FEA8
:1046A00040F23311072000F0D1FEBDE0644880885D
:1046B00041F663118842F8D1E22000F0B1FE1D20DE
:1046C00000F0A2FE022000F09FFE042000F09CFEFD
:1046D000642001F0BBFAE02000F0A2FE012000F00F
:1046E00093FE0A2001F096FAE02000F099FE0320E4
:1046F00000F08AFE0C2001F08DFA012000F090FEFF
:104700000A2001F087FAE62000F08AFE2F2000F050
:104710007BFEFF2000F078FEFF2000F075FEB02049
:1047200000F07EFE202000F06FFE002000F06CFE06
:10473000032000F069FE40F21F3000F065FE01200A
:1047400000F062FE40F2DF1000F05EFE002000F09C
:104750005BFEB42000F064FE042000F055FE40F241
:104760001F4000F051FE002000F04EFE2E2000F011
:104770004BFE002000F048FE002000F045FE002027
:1047800000F042FE002000F03FFEB62000F048FEA0
:10479000022000F039FE4FF4037000F035FE0020D7
:1047A00000F032FE172000F02FFE152000F02CFE46
:1047B000002000F029FE002000F026FEF02000F08E
:1047C0002FFE032000F020FE292000F029FED0203B
:1047D00000F026FE002000F017FEBE2000F020FEB4
:1047E000052000F011FEFE2000F00EFE012000F07A
:1047F0000BFE002000F008FE002000F005FE002067
:1048000000F002FEB82000F00BFE032000F0FCFDDB
:10481000012000F0F9FDBA2000F002FE012000F0B6
:10482000F3FD642000F032F80020FCF7B5F9012018
:10483000044908604FF6FF70FCF778F921B000BD1D
:1048400048110020BC82404210B50246012000E021
:1048500050430B1EA1F10104E1B2F9D110BD0000DB
:1048600008B5034800880090BDF8000008BD0000AE
:104870008000006C10B50446204600F0D1FD0520F4
:1048800001F0E4F9FFF7ECFF10BD000070B52DED6D
:10489000048B0446BE2000F0C3FD052000F0B4FDEB
:1048A000204602F084FB41EC190B9FED0E0B53ECFC
:1048B000102B02F0CBFB41EC180B02F04BFB85B246
:1048C000284600F0A1FD012000F09EFDFF2000F031
:1048D0009BFD002000F098FD002000F095FDBDEC50
:1048E000048B70BD6666666666660440F0B5054674
:1048F00000240027B748807901280BD1B54880886B
:1049000046F60401884205D0B248808841F663111A
:10491000884208D1AF488079F0B9AE48808841F626
:104920006311884218D1082D15D2DFE805F004067E
:10493000080A0C0E101206250DE007250BE00425D1
:1049400009E0052507E0012505E0002503E0032532
:1049500001E0022500BF00BF9E48808849F2413136
:10496000884217D09B48808846F60401884211D0BF
:104970009848808845F2103188420BD0954880884D
:1049800045F21051884205D09248808841F6631163
:1049900088427DD1082D1CD2DFE805F00406090C01
:1049A0000F12151800BF14E044F0800411E044F029
:1049B00040040EE044F0C0040BE044F0200408E0A2
:1049C00044F0600405E044F0A00402E044F0E00498
:1049D00000BF00BF7F48808845F21051884202D155
:1049E0004FF4585700E036277A48808845F2103156
:1049F00088420DD07748808845F21051884207D010
:104A00007448808841F66311884201D044F008045C
:104A10007048808846F60401884201D144F00204BF
:104A20002146384600F012FD6A48808841F663113D
:104A300088421DD004F0200068B1664800886549AE
:104A40004988884214DA63480688408861490880AA
:104A5000084646800CE05F4800885E4949888842E5
:104A600006DD5C48068840885A490880084646802A
:104A70005848808845F21051884254D15549488998
:104A800000F0CEFC002000F0BFFC5249498900E054
:104A900078E0491C88B200F0C3FC002000F0B4FCB0
:104AA0004C494989891C88B200F0BAFC49490988F7
:104AB000491EC1F30F2000F0A7FC46494989C91CD3
:104AC00088B200F0ADFC43490978491EC8B200F035
:104AD0009BFC4049888900F0A3FC002000F094FC76
:104AE0003C498989491C88B200F09AFC002000F0FA
:104AF0008BFC38498989891C88B200F091FC3549C2
:104B00004988491EC1F30F2000F07EFC3149898994
:104B1000C91C88B200F084FC2E498978491EC8B2AD
:104B200000F072FC55E02B49488900F079FC002028
:104B300000F06AFC002000F067FC26490988491E45
:104B4000C1F30F2000F060FC22490978491EC8B269
:104B500000F05AFC1F49888900F062FC002000F038
:104B600053FC002000F050FC1A494988491EC1F34B
:104B70000F2000F049FC17498978491EC8B200F09F
:104B800043FC26E0082D1CD2DFE805F004070A0DDF
:104B90000F12151844F0300413E044F0100410E034
:104BA00044F020040DE000BF0BE044F0380408E0BE
:104BB00044F0280405E044F0180402E044F008043E
:104BC00000BF00BF032744F480542146384600F05C
:104BD0003DFCF0BD4811002030B504460D46674845
:104BE000808849F24131884205D06448808845F286
:104BF0001031884214D16149488900F011FC20121B
:104C000000F002FCE0B200F0FFFB5C49888900F094
:104C100007FC281200F0F8FBE8B200F0F5FBABE06F
:104C20005648808846F6040188421DD15348807951
:104C3000012804D151480088401E001B84B24F490E
:104C4000488900F0EDFB201200F0DEFBE0B200F03E
:104C5000DBFB4A49888900F0E3FB281200F0D4FB13
:104C6000E8B200F0D1FB87E04448808841F6631148
:104C7000884247D141488079A8B940480088401E01
:104C8000001B84B23D49488900F0CAFB002000F0B7
:104C9000BBFB002000F0B8FB201200F0B5FBE0B237
:104CA00000F0B2FB16E03549488900F0B9FB20124C
:104CB00000F0AAFBE0B200F0A7FB30490988491ECA
:104CC000C1F30F2000F0A0FB2C490978491EC8B29F
:104CD00000F09AFB2949888900F0A2FB281200F015
:104CE00093FBE8B200F090FB24494988491EC1F3C8
:104CF0000F2000F089FB21498978491EC8B200F0D5
:104D000083FB39E01D48808845F21051884220D14C
:104D10001A49488900F084FB201200F075FB1749FE
:104D20004989491C88B200F07BFBE0B200F06CFBC3
:104D30001249888900F074FB281200F065FB0F49C6
:104D40008989491C88B200F06BFBE8B200F05CFB7B
:104D500012E00A488079012804D108480088401EE2
:104D6000001B84B205494889214600F06FFB0349C6
:104D70008889294600F06AFB30BD000048110020F8
:104D80002DE9F84F80460E4617461C46B34620468E
:104D9000E31704EB5373DB1021464FEAE47C04EB8A
:104DA0005C7C4FEAEC0CA4EBCC0CBCF1000F02D005
:104DB0004FF0010C01E04FF0000C6344224604EB7D
:104DC000D27C4FEA6C0C03FB0CF3DBB20093A7F12F
:104DD0002000C7B2002556E00C2C07D107EB470096
:104DE0002B4901EB800010F8059013E0102C05D141
:104DF000284800EB071010F805900BE0182C07D19D
:104E000007EBC700244901EB800010F8059001E092
:104E1000BDE8F88F4FF0000A2FE009F0800030B1B4
:104E20001E48028831464046FBF796FF07E00A9885
:104E300028B91B48028831464046FBF78DFF4FEAF0
:104E400049604FEA1069701C86B216484088B0422B
:104E500000DCDDE7A6EB0B00A0420AD15E4608F1BC
:104E600001001FFA80F80F480088404500DCCFE7BA
:104E700006E00AF1010000F0FF0ABAF1080FCCDBEE
:104E800000BF681CC5B200988542A5DB00BFBFE724
:104E9000B87300082C7800081C7E00082A11002036
:104EA0002C110020481100202DE9FF4F81B007464A
:104EB00091461E460E9D4FF0000A002439E0301B3B
:104EC000401EC1B20A20FFF7BFFCB9FBF0F00A2177
:104ED000B0FBF1F201FB1208BAF1000F16D1701EFF
:104EE000A04213DDB8F1000F0ED10020AB4605EB58
:104EF000DB71491001FB0471009088B22B4620221F
:104F00000299FFF73DFF12E04FF0010A0020AB4687
:104F100005EBDB71491001FB0471009088B208F1C8
:104F20003001CAB22B460299FFF72AFF00BF601C6E
:104F3000C4B2B442C3DB05B0BDE8F08F2DE9F84739
:104F400004460D4690469946DDE9096704F0FF0ADC
:104F500008EB04001FFA80F809EB05001FFA80F93E
:104F600016E0444502DB5446A81985B24D4500DBE6
:104F700014E0002000903A78334629462046FFF797
:104F8000FFFE304606EBD07104EB61018CB27F1C52
:104F900038787E2802DC38782028E2DA00BFBDE8C5
:104FA000F88700002DE9FF4F07460D4690461C4646
:104FB000AA46019500972046E11704EB5171C1F311
:104FC000C7010291E11704EB5171C910A4EBC101B3
:104FD00019B10298401CC0B2029000264BE0009F1D
:104FE0000821019801FB060080B2054682464FF079
:104FF00000093CE006FB08910D9810F801B0002074
:1050000003902CE00BF0800030B11D480288294647
:105010003846FBF7A1FE05E01A48028829463846C3
:10502000FBF79AFE4FEA4B604FEA106B681C85B2A3
:1050300015484088A84201DCBDE8FF8FA5EB0A00B7
:10504000082808D15546781C87B20F480088B84216
:1050500000DCF1E706E00398401CC0B2039003981F
:105060000828CFDB00BF09F1010000F0FF09C145AE
:10507000C0DB701CC6B202988642B0DB00BFDBE723
:105080002A1100202C110020481100202DE9FF4F8B
:1050900080460D46DDE90D49AA460195CDF8008010
:1050A0002046E11704EB5171C1F3C70102910026BC
:1050B00069E0DDF800800821019801FB060080B25C
:1050C0000546824600275AE0102C04D0202C0AD036
:1050D000402C18D10FE02E4800EB491004FB06715C
:1050E00010F801B012E02B4800EBC91004FB067168
:1050F00010F801B00AE0284800EB492004FB0671D3
:1051000010F801B002E04FF0000B00BF00BF00201C
:1051100003902EE00BF0800030B120480288294631
:105120004046FBF719FE05E01D4802882946404627
:10513000FBF712FE4FEA4B604FEA106B681C85B21A
:1051400018484088A84201DCBDE8FF8FA5EB0A00A3
:1051500008280AD1554608F101001FFA80F81148C5
:105160000088404500DCEFE706E00398401CC0B231
:10517000039003980828CDDB00BF781CC7B2A74274
:10518000A2DB701CC6B20298864292DB00BFDBE74E
:10519000AA0B00202A0C00202A0F00202A11002030
:1051A0002C110020481100202DE9FC4306468846BA
:1051B00014461F46DDF8249000250DE017F8250061
:1051C00005FB0461CDE9004088B2234622464146F2
:1051D000FFF75CFF681CC5B24D45EFDBBDE8FC8303
:1051E0002DE9FC470546894616461F46DDE90A4873
:1051F000BCEEC01A11EE100A80B200EE900AB5EEB5
:10520000C00AF1EE10FA49DB00202346202249466D
:1052100000902846FFF7B4FD05F10C0188B2334633
:10522000BCEEC01A11EE102A49460094FFF73CFE6E
:105230000020A24604EBDA714A1005F10C0102FBD2
:105240000611009088B223462E224946FFF798FDAA
:10525000B8EE601A30EE411AB0EE410A39460A2023
:10526000FFF7F2FA01EE100AB8EE411A21EE001A29
:10527000B0EE410A04EBDA714B10711C05F10C021F
:1052800003FB012188B23B46BCEEC01A11EE102A86
:105290004946CDE9004800F057F853E0B1EE401A16
:1052A000B0EE410ABCEEC11A11EE100A80B200EE57
:1052B000900A002023462D22494600902846FFF7F9
:1052C0005FFD05F10C0188B23346BCEEC01A11EE49
:1052D000102A49460094FFF7E7FD0020A24604EBA0
:1052E000DA714A1005F10C0102FB0611009088B238
:1052F00023462E224946FFF743FDB8EE601A30EEF2
:10530000411AB0EE410A39460A20FFF79DFA01EE34
:10531000100AB8EE411A21EE001AB0EE410A04EB71
:10532000DA714B10711C05F10C0203FB012188B2EC
:105330003B46BCEEC01A11EE102A4946CDE90048A2
:1053400000F002F8BDE8FC872DE9FF4F82B0064669
:1053500092461F46DDE90F480020019000254DE0F0
:10536000781B401EC1B20A20FFF76EFABAFBF0F0BC
:105370000A21B0FBF1F201FB1209019850BB781E23
:10538000A84227DDB9F1000F22D108F0800078B1E2
:1053900008F00100A34604EBDB71491001FB056135
:1053A000009088B2234630220399FFF7E9FC0EE013
:1053B00008F00100A34604EBDB71491001FB056115
:1053C000009088B2234630220399FFF7D9FC13E0FE
:1053D0000120019008F00100A34604EBDB714910A5
:1053E00001FB0561009088B209F13001CAB2234681
:1053F0000399FFF7C5FC00BF681CC5B2BD42AFDB17
:1054000006B0BDE8F08F000001B5BDF800000090C7
:10541000BDF800000149088008BD00008000006C54
:1054200001B5BDF800000090BDF8000001490880FA
:1054300008BD00007E00006C024800890249088017
:1054400070470000481100207E00006C034A108065
:105450004FF0D842A2F88010704700007E00006C28
:105460001CB50121022000F065F8012000908DF8A4
:10547000040000208DF8060003208DF805000120AF
:105480008DF8070069460448FBF77FFA01210248BE
:10549000FBF7EFFA1CBD00000004024000BFFEE76E
:1054A0007047000070B5002100230F22C4781CB3A0
:1054B000174C246804F4E064C4F5E064C4F30721E5
:1054C000C1F10404E3B20A4144789C40E1B284781B
:1054D000144021430C07210E0E4C057861550478C9
:1054E00004F01F050124AC4005786D11AD0005F1F5
:1054F000E025C5F8004109E0047804F01F05012407
:10550000AC40054D0678761145F8264070BD000088
:105510000CED00E000E400E080E100E0024901431E
:10552000024A1160704700000000FA050CED00E02F
:105530007047000029B1064A12680243044B1A6002
:1055400004E0034A12688243014B1A60704700006E
:105550003038024029B1064A12680243044B1A60EF
:1055600004E0034A12688243014B1A60704700004E
:105570003838024029B1064A12680243044B1A60C7
:1055800004E0034A12688243014B1A60704700002E
:105590004438024029B1064A12680243044B1A609B
:1055A00004E0034A12688243014B1A60704700000E
:1055B00024380240F0B500210022002402250026F4
:1055C0000223324F3F6807F00C0121B1042905D0B6
:1055D000082937D105E02E4F076036E02D4F0760D0
:1055E00033E02A4F3F1F3F68C7F38056274F3F1FC6
:1055F0003F6807F03F036EB1264FB7FBF3F7DFF8C4
:105600008CC0ACF1040CDCF800C0CCF3881C07FBA8
:105610000CF40CE01E4FB7FBF3F7DFF870C0ACF1F1
:10562000040CDCF800C0CCF3881C07FB0CF4174F0B
:105630003F1F3F68C7F301477F1C7D00B4FBF5F7B0
:10564000076002E0124F076000BF00BF0F4F3F68C6
:1056500007F0F0010909104F7A5C0768D7404760EE
:105660000A4F3F6807F4E051890A0B4F7A5C47689C
:10567000D7408760054F3F6807F46041490B064FEC
:105680007A5C4768D740C760F0BD00000838024028
:105690000024F40040787D019A0B002001461C484C
:1056A000814201D2002070471A48814201D208206D
:1056B000F9E71948814201D21020F4E717488142E6
:1056C00001D21820EFE71648814201D22020EAE7F4
:1056D0001448814201D22820E5E71348814201D2D3
:1056E0003020E0E71148814201D23820DBE7104842
:1056F000814201D24020D6E70E48814201D24820A3
:10570000D1E70D48814201D25020CCE75820CAE7AA
:10571000004000080080000800C0000800000108E8
:105720000000020800000408000006080000080845
:1057300000000A0800000C0800000E080146086876
:10574000704700B502461046FFF7F8FF00EE100A5A
:10575000B8EE400A00BD00002DE9F0412DED028BAE
:105760000446B0EE408A092600250027B4F1006FF8
:1057700002D304F0030018B1BDEC028BBDE8F08148
:10578000FBF752F80020FAF79DFF2546271D1B481E
:10579000854214D210E02846FFF7D0FF401C50B1DC
:1057A0002846FFF77BFF80460221FAF79DFF064659
:1057B000092E01D002E02D1DBD42ECD300BF092E01
:1057C00014D110E0BCEEC80A10EE101A2046FBF708
:1057D00003F8092800D008E0241DB7EE000A38EECF
:1057E000000AB0EE408ABC42ECD300BF0120FAF7B9
:1057F00069FFFAF7E7FF00BFBEE700000000FF1FE8
:10580000704700000CB500200190009034480068FB
:1058100040F480303249086000BF3148006800F42D
:10582000003000900198401C0190009818B9019830
:10583000B0F5A04FF1D12A48006800F4003010B153
:105840000120009001E0002000900098012846D13E
:1058500023484030006840F08050214940310860C2
:105860002048006840F440401E4908601C48083049
:1058700000681B49083108600846006840F4004091
:1058800008600846006840F4A05008601648091FE8
:105890000860081F006840F08070091F086000BFA2
:1058A0000F48006800F000700028F9D040F2057041
:1058B0000E4908600A480830006820F003000849D3
:1058C000083108600846006840F00200086000BF28
:1058D00003480830006800F00C000828F8D10CBD1F
:1058E000003802400070004019544007003C02405C
:1058F000042808D14FF0E021096941F004014FF07C
:10590000E022116107E04FF0E021096921F0040174
:105910004FF0E022116170477047000010B5154844
:10592000006840F47000134908601348006840F0B4
:1059300001001149086000200F49083108600E4835
:1059400000680E4908400C4908600D48091D0860B0
:10595000081F006820F48020091F08600020064905
:105960000C310860FFF74EFF4FF0006001498039AD
:10597000086010BD88ED00E000380240FFFFF6FE31
:105980001030002410B540F225511D4800F04AF8AF
:1059900010B31B4800F000F9C4B21A48008800F4A4
:1059A0000040C8B91748008800F4804060B10A2C54
:1059B00003D000201349088020E01248008840F4FA
:1059C00000401049088019E00D2C06D10D480088D0
:1059D00040F480400B49088010E00A480088C0F37A
:1059E0000D0009490C5407480088401C05490880EF
:1059F00008460088C72801DD0020088010BD00008F
:105A000000100140381100205611002021B1828978
:105A100042F40052828104E082894DF6FF731A40FD
:105A20008281704770B502460024002300250020C3
:105A300040F66A16B14200D100BFC1F3421501F031
:105A40001F03012606FA03F3012D02D19689334084
:105A500006E0022D02D1168A334001E0968A3340D7
:105A60000C12012606FA04F41688344013B10CB166
:105A7000012000E0002070BDF0B5034600240026A0
:105A80000025002040F66A17B94200D100BF184631
:105A9000C1F3421401F01F06012707FA06F5012C95
:105AA00001D10C3004E0022C01D1103000E01430A0
:105AB0001AB107682F43076002E00768AF43076029
:105AC000F0BD00002DE9FF4705460E460024A14623
:105AD00000BFA046B08900B100BF2C8A24F4405416
